:020000040800F2
:10000000882600207D020008031C0008C91A000889
:10001000011C00086B08000805250008000000000E
:100020000000000000000000000000009D0100082A
:100030006D08000800000000F9010008DD1E00083E
:10004000970200089702000897020008970200082C
:10005000970200089702000897020008970200081C
:10006000970200089702000897020008970200080C
:1000700097020008970200089702000897020008FC
:1000800097020008970200089702000897020008EC
:1000900097020008970200089702000897020008DC
:1000A00097020008E11F0008970200089702000865
:1000B00097020008970200089702000897020008BC
:1000C00097020008970200089702000897020008AC
:1000D000970200089702000897020008970200089C
:1000E000970200089702000897020008970200088C
:1000F000970200089702000897020008970200087C
:10010000970200089702000897020008970200086B
:10011000970200089702000897020008970200085B
:10012000970200089702000897020008970200084B
:10013000970200089702000897020008970200083B
:10014000970200089702000897020008970200082B
:10015000970200089702000897020008970200081B
:10016000970200089702000897020008970200080B
:10017000970200089702000897020008000000009C
:100180009702000897020008DFF80CD000F0ECFAA4
:10019000004800472D2E0008882600202C4B1968A7
:1001A000086800F05AB880F30988BFF36F8F4FF0EA
:1001B000000080F3118870470000000008480068C4
:1001C000006880F308884FF0000080F3148862B65E
:1001D00061B6BFF34F8FBFF36F8F00DF00BF00BF6B
:1001E00008ED00E0DFF80C00016841F470010160E7
:1001F000704700BF88ED00E0EFF30980BFF36F8F19
:10020000134B1A681EF0100F08BF20ED108A20E96A
:10021000F04F106009B44FF0500080F31188BFF325
:100220004F8FBFF36F8F03F001FA4FF0000080F3A0
:10023000118809BC1968086800F014B81EF0100F86
:1002400008BF00F014B880F30988BFF36F8F7047C0
:1002500010000020EFF30580704730C8B0E8C04FB1
:10026000FFF7A1BF30C8B0E8C04FFFF7E7BFB0EC61
:10027000088AB0EC08CAFFF7E6BF000006488047CE
:1002800006480047FEE7FEE7FEE7FEE7FEE7FEE77B
:10029000FEE7FEE7FEE7FEE79D1F00088901000874
:1002A0002DE9F05F0546002092469B4688460646AB
:1002B000814640241BE0284641464746224600F03E
:1002C0007FF853465A46C01A914110D3114618463A
:1002D000224600F066F82D1A67EB01084F462246C9
:1002E0000120002100F05DF817EB00094E41201EAF
:1002F000A4F10104DFDC484631462A46434600F0BB
:1003000000B830BCBDE8C09F40EA01039B0703D0A2
:1003100009E008C9121F08C0042AFAD203E011F844
:10032000013B00F8013B521EF9D27047D2B201E006
:1003300000F8012B491EFBD270470022F6E710B5EA
:1003400013460A4604461946FFF7F0FF204610BD43
:1003500010B5044604E00B7800F8013B03B1491CDA
:10036000521EF8D2204610BD421C10F8011B002975
:10037000FBD1801A704730B50B4601460020202281
:10038000012409E021FA02F59D4205D303FA02F5A2
:10039000491B04FA02F52844151EA2F10102F1DC02
:1003A00030BD202A04DB203A00FA02F10020704719
:1003B0009140C2F1200320FA03F3194390407047A3
:1003C000202A04DB203A21FA02F00021704721FAAA
:1003D00002F3D040C2F12002914008431946704711
:1003E0002DE9FE4F804681EA0300C00F0C460090C5
:1003F00021F0004123F00045B8EB0200A94105D2ED
:100400004046214690461C460B46024623F00040DB
:10041000104347D0270DC7F30A00C3F30A510290D7
:10042000401A019040286BDAC3F3130040F4801B9C
:100430000098924620B10023D2EB030A63EB0B0B2A
:1004400001985946C0F140025046FFF7AAFF064600
:100450000D4650465946019A00F098F910EB0800F5
:100460006141002487EA115284EAE7731A4340D0BD
:10047000009A62B3019A012A4FEA075215DC001B69
:1004800061EB02014FF0004202EA0752CDE900425F
:10049000001C41F5801132462B4600F098F903B05C
:1004A00000F045B840462146F9E7001B61EB020128
:1004B000001C41F5801300185B412018A2F50017BD
:1004C00047EB030140EAD570B6196D4111E06D08A4
:1004D0004FEA360645EAC0754FEA0752001B61EB4A
:1004E0000201001C41F5801149084FEA3000001953
:1004F000514132462B4603B000F01CB800F058B909
:100500000098012240000023D0EB020263EBE0736D
:10051000009821464FEAE074B8EB000061EB04015B
:10052000E9E783F000435BE781F0004158E730BC26
:10053000BDE8C08F30BCBDE8C04FFFF7DFBF2DE97D
:10054000FE4F81EA030404F0004421F000410094CE
:100550004FF0000B23F0004350EA01045ED052EA52
:1005600003045BD0C3F30A54C1F30A552C44A4F22C
:10057000F3340194A0FB0254C1F3130141F4801140
:10058000C3F3130343F4801301FB024400FB034E47
:10059000840A970A44EA815447EA8357A4FB076810
:1005A00002958D0A05FB07854FEA932C04FB0C543A
:1005B0002705029D4FEA065847EA1637B5EB0805AE
:1005C0006EEB070C870E920E47EA811742EA831200
:1005D000A7FB0201B6EB0B0164EB00042B0D43EA11
:1005E0000C335E1844EB1C50DA465146E7FB02011F
:1005F000C5F313044FEA0B3343EA14534FEA0432B2
:10060000019C43EA0603A4F10C040294009CCDE98A
:1006100000B400F0DCF803B000F003B8002001469D
:10062000F9E730BCBDE8C08F2DE9F04D81EA030445
:1006300004F0004B21F0004514464FF0000A23F06F
:10064000004150EA050220D054EA01021DD0C5F352
:100650000A570246C5F31303C1F31300C1F30A5648
:1006600040F4801543F48013A7EB0608101BD64610
:1006700008F2FD3873EB050002D308F1010801E030
:1006800092185B41B8F1000F03DA00200146BDE883
:10069000F08D00204FF48011064684460EE0171BB3
:1006A00073EB050705D3121B63EB050306434CEA06
:1006B000010C49084FEA300092185B4150EA0107EB
:1006C000EDD152EA030012D082EA040083EA050168
:1006D000084305D0101BAB4106D20122002306E0DF
:1006E00000224FF0004302E06FF0010253101AEBBA
:1006F00006004CEB085110EB0A0041EB0B01BDE882
:10070000F04D00F055B8C1F30A52C1F3130140F2A5
:10071000FF3341F480119A4202DA0020014670470B
:1007200040F233439A42A2F2334202DC5242FFF7D4
:1007300047BEFFF736BE000030B5041E71F100045D
:1007400004DB4FF00044404264EB0101141E73F1DE
:10075000000405DB1C464FF00043524263EB0403E8
:10076000994208BF904230BD064C074D06E0E06854
:1007700040F0010394E8070098471034AC42F6D3E8
:10078000FFF706FD183B0008383B0008202A06DB6F
:10079000CB17203A41FA02F043EAE07306E041FA4F
:1007A00002F3D040C2F1200291400843194670473D
:1007B00010B5141E73F1000408DA401C41F1000169
:1007C00092185B411A4301D120F0010010BD2DE9C0
:1007D000F04D92469B4611B1B1FA81F202E0B0FAB7
:1007E00080F220329046FFF7DCFD04460F4640EAD7
:1007F0000A0041EA0B0153465A46084313D01146FA
:1008000053EA010019D0C8F140025046FFF7D8FD65
:1008100005460E46504659464246FFF7C2FD08437C
:1008200005D0012004E020463946BDE8F08D0020C7
:10083000054346EAE0762C4337430A986305E40A09
:10084000A0EB08000022FD0A44EA47540A3002D512
:1008500000200146E9E7010510196941DDE9084575
:1008600000196941BDE8F04DA2E7FEE77047704707
:100870002DE9F84FDFF898B100234FF0010C4FF04D
:10088000030A4FF00F090BF1040EB9E00CFA03F460
:10089000224070D04D68022D01D0122D0ED1DD08FE
:1008A00000EB8508D8F820505E07F70E09FA07F626
:1008B000B5430E69BE402E43C8F8206007685E004D
:1008C00091F804800AFA06F508F00308AF4308FA25
:1008D00006F848EA0708C0F800804F68012F05D0E5
:1008E000022F03D0112F01D0122F13D1D0F808807E
:1008F000CF6828EA0508B74047EA08078760D0F8BC
:1009000004800F7928EA0408C7F300179F4047EADC
:1009100008074760D1F804806FEA0807BF0706D1CF
:10092000C76AA743C8F3C0049C403C43C462C46880
:10093000AC438D68B5402543C5604C68E4005ED586
:10094000344C256E45F001052566246E23F0030521
:1009500004F001040094304C2E19B4689D072F0F49
:1009600009FA07F5AC43B0F1904F05D02B4DA842E2
:1009700004D101251CE042E0002519E0284DA842E1
:1009800001D1022514E0274DA84201D103250FE033
:10099000254DA84201D104250AE0244DA84201D1E9
:1009A000052505E0224DA84201D1062500E00725D6
:1009B000BD402543B560DBF800405D464E6894437A
:1009C000F60300D514432C60DEF8004075464E68EF
:1009D0009443B60300D514432C600D4D08352C68A4
:1009E0004E689443F60200D514432C60084D0C3534
:1009F0002C684E689443B60200D514432C605B1CEF
:100A00000A6832FA03F57FF441AF00F013B8000032
:100A100000040140001002400000014000040048B2
:100A200000080048000C004800100048001400486E
:100A30000018004818BCBDE8E08F0AB1816170471A
:100A4000816270470148006870470000080000207C
:100A500002480168491C016070470000080000203E
:100A600010B50024032000F08BF8002000F008F8F7
:100A700008B1012401E000F03DF8204610BD00005F
:100A800000B5014687B00022192000F059F819205E
:100A900000F04AF81348016E41F400610166006EEF
:100AA00005A900F400600690684600F01BFB00F00A
:100AB0004BFB0D490D4AB0FBF1F10D48491E026098
:100AC000416040F2E7320021C0E90321816000F07B
:100AD00036FE10B1012007B000BD054800F04CFE05
:100AE000F9E700000010024040420F00002C0140D6
:100AF000580100200B4882B0016E41F001010166EF
:100B0000016E01F001010091816D41F0805181651C
:100B1000806D002200F0805000900F21901E02B0E6
:100B200000F00EB80010024000F01F0201219140B9
:100B30004009800000F1E020C0F80011704700007B
:100B4000F0B40E4B1B680C46C3F30223C3F1070538
:100B5000042D00D90425191D072901D2002300E026
:100B6000DB1E012606FA05F1491E214099409E40F0
:100B7000761E16403143F0BC01F044B80CED00E0A5
:100B8000064900F0070208684FF6FF03184040EAE4
:100B90000220034A10430860704700000CED00E09B
:100BA0000000FA051649B0F5007F0868C0F341203F
:100BB00009D0022805D0086820F4C06040F48060A5
:100BC0000860002070470128FBD0086820F4C0604E
:100BD00040F4007008600B483222006850430A4A13
:100BE000B0FBF2F0401C00E0401E4A69520501D5FE
:100BF0000028F9D148694005E3D50320704700007B
:100C0000007000400C00002040420F0002480068C5
:100C100000F4C06070470000007000402DE9F84FFC
:100C2000044600270088E54D3E46010504F1200BEF
:100C30001DD5606E78B1B0F5800F11D0B0F5000F02
:100C400004D0B0F5400F22D001270FE0E86840F44F
:100C50008030E8601BE00021201D00F0E3FF03E08E
:100C60000021584601F074F8070010D03E46208855
:100C7000C00426D5A06EC0B1B0F1807F1AD0B0F10B
:100C8000007F0DD0B0F1407F19D0012718E0D5F8D2
:100C90008800616E20F440000843C5F88800E6E74C
:100CA000E86840F48030E86009E00021201D00F091
:100CB000B9FF03E00021584601F04AF80746F7B1B2
:100CC0003E46206880033AD5A86D4FF00008C0006A
:100CD00009D4A86D40F08050A865A86D4FF00108B8
:100CE00000F080500090DFF8D8A2DAF8001041F44C
:100CF0008071CAF80010FFF7A5FE814610E0D5F814
:100D00008800A16E20F040700843C5F88800D8E73D
:100D1000FFF798FEA0EB0900022801D9032705E0A0
:100D2000DAF80000C005F3D5002F7CD04FEA0706A3
:100D3000B8F1000F03D0A86D20F08050A86520788E
:100D4000C00707D0D5F88800A16B20F00300084346
:100D5000C5F888002078800707D5D5F88800E16BB2
:100D600020F00C000843C5F888002078400707D51C
:100D7000D5F88800216C20F030000843C5F88800C1
:100D80002078000707D5D5F88800616C20F0C000F6
:100D90000843C5F888002078C00607D5D5F8880034
:100DA000A16C20F440700843C5F8880020788006C4
:100DB00007D5D5F88800E16C20F440600843C5F8F9
:100DC00088002088800507D5D5F88800E16D20F4DB
:100DD00040200843C5F888002088400507D5D5F88D
:100DE0008800216E20F440100843C5F88800207860
:100DF000400607D5D5F88800216D20F440500843FF
:100E0000C5F888002078000607D5D5F88800616D00
:100E100020F440400843C5F888002088C00509D563
:100E2000D5F8880000E01CE0A16D20F440300843B4
:100E3000C5F8880020884FF0006780044FF0806874
:100E40004FD5D5F88800E16E20F040600843C5F822
:100E50008800E06EB8423CD1E86840F48010E86059
:100E60003FE0D5F8900010F4407015D0D4F884100D
:100E7000814211D0D5F89000D5F8901020F4407040
:100E800041F48031C5F89010D5F8901021F48031EC
:100E9000C5F89010C5F89000C00710D0FFF7D2FD3C
:100EA000074641F2883906E0FFF7CCFDC11B4945F2
:100EB00001D903263CE7D5F890008007F4D5D5F892
:100EC0009000D4F8841020F440700843C5F89000D6
:100ED0002EE7404505D10121201D00F0A3FE00B101
:100EE00006462068000317D5D5F88800216F20F04A
:100EF00040600843C5F88800206FB84204D1E86814
:100F000040F48010E86007E0404505D10121201D34
:100F100000F088FE00B106462068400317D5D5F8DA
:100F20008800616F20F040600843C5F88800606F5A
:100F3000B84204D1E86840F48010E86007E040451A
:100F400005D10121201D00F06DFE00B1064620886C
:100F500040041AD5D5F88800A16F20F0405008430E
:100F6000C5F88800A06FB0F1805F03D0B0F1005FDA
:100F700005D00AE00221201D00F054FE03E002210A
:100F8000584600F0E5FE00B106462088000407D56B
:100F9000D5F88800E16F20F080400843C5F888004C
:100FA0002068C00307D555F8880FD4F8801020F0CA
:100FB000004008432860304600F004B800100240AA
:100FC0000070004018BCBDE8E08F00002DE9F0473C
:100FD0000F46050058D03F4E306800F00700B84279
:100FE00009D2306820F0070038433060306800F0E4
:100FF0000700B84248D12878374CC0072CD0686821
:10100000032811D0022812D0216898B1490500297F
:101010003ADAA16821F003010143A160FFF712FD54
:10102000804641F2883910E021688901EFE72168A4
:101030008903ECE78907EAE7FFF704FDA0EB080165
:10104000494502D90320BDE8F087A068696800F02F
:101050000C00B0EB810FEFD12878800705D5A06890
:10106000A96820F0F0000843A060306800F0070095
:10107000B8420BD9306820F0070038433060306840
:1010800000F00700B84201D00120DCE728784007D3
:1010900005D5A068E96820F4E0600843A0602878DE
:1010A000000706D5A068296920F4605040EAC10015
:1010B000A06000F05BF8A168084AC1F30311515C1D
:1010C00001F01F01C84006490860BDE8F047002054
:1010D000FFF7D6BC0020024000100240C43A0008CE
:1010E0000C0000200F2202600C4A936803F00303F7
:1010F0004360936803F0F0038360936803F4E06354
:10110000C36092684FF4E06303EAD20202610448CC
:10111000006800F0070008607047000000100240FF
:10112000002002400548064900688968054AC1F365
:101130000221515C01F01F01C84070470C000020E3
:1011400000100240043B0008054806490068896811
:10115000054AC1F3C221515C01F01F01C84070472C
:101160000C00002000100240043B000870B5254927
:10117000002318468A68CC6812F00C0204F00306BB
:10118000214C4FEA640509D00C2A05D0042A26D048
:10119000082A00D1284670BD012E10D10B681B070C
:1011A00004D4D1F89430C3F3032302E00B68C3F3F3
:1011B0000313164E56F823307AB10C2AEBD1C868C7
:1011C00000F00302C868C0F30210401C022A08D0D5
:1011D000032A09D0B3FBF0F008E0184670BD2046A2
:1011E00070BDB4FBF0F001E0B5FBF0F0CA68C9686F
:1011F000C2F306225043C1F34161491C4900B0FBD0
:10120000F1F070BD001002400024F400D43A000850
:101210002DE9F84305007CD0FD4CA06800F00C06D9
:10122000E06800F003072878C00661D576B10C2E7F
:1012300001D1012F0AD0A8690028206878D040F099
:1012400001002060FFF7FEFB804659E02068800720
:1012500002D5A8690028DED0286A2168090703D5CD
:10126000216801F0F00104E0D4F89410F02202EAC1
:101270001111884215D900F0EFFD002849D12068EE
:1012800040F0080020602068296A20F0F000084340
:1012900020606068E96920F47F4040EA01206060D6
:1012A00015E0206840F0080020602068296A20F0DE
:1012B000F000084320606068E96920F47F4040EA5C
:1012C00001206060286A00F0C7FD0028D6D1FFF732
:1012D0004DFFA168CF4AC1F30311515C01F01F011A
:1012E000C840CD4908600020FFF7CAFB00287DD127
:1012F0002FE000BFFFF7A6FBA0EB0800022876D87E
:1013000020688007F6D5206840F00800206020683B
:1013100001E0BBE00CE0296A20F0F0000843206007
:101320006068E96920F47F4040EA0120606010E0D5
:1013300020F001002060FFF785FB804606E000BF3B
:10134000FFF780FBA0EB08000228D8D820688007B0
:10135000F6D42878C00740D0082E18D00C2E01D122
:10136000032F14D06868B0F5803F17D0B0F5A02FD8
:10137000206817D020F480302060206820F480207E
:1013800020606868E0B1FFF75DFB804614E02068EC
:10139000800322D56868002878D01EE0206840F4D9
:1013A0008030EDE740F480202060F7E7FFF74AFB4C
:1013B000A0EB08006428A2D820688003F6D50CE0D2
:1013C000FFF740FB804605E0FFF73CFBA0EB080081
:1013D000642894D820688003F6D4287880073BD509
:1013E000042E11D00C2E04D1022F01E036E1A1E031
:1013F0000AD0E868002820681ED040F48070206081
:10140000FFF720FB07460CE0206840050CD5E86894
:101410000028C1D008E000BFFFF714FBC01B022862
:1014200093D820684005F7D56068297C20F0F850F3
:1014300040EA016060600FE020F480702060FFF7F8
:1014400001FB074605E000BFFFF7FCFAC01B0228BE
:1014500070D820684005F7D42878000729D5686936
:101460000028D4F8940012D040F00100C4F8940091
:10147000FFF7E8FA074604E0FFF7E4FAC01B02288A
:1014800058D8D4F894008007F6D512E0EDE020F0AB
:101490000100C4F89400FFF7D5FA074605E000BF45
:1014A000FFF7D0FAC01B022844D8D4F89400800774
:1014B000F6D42878400768D5A06D0027C00008D46E
:1014C000A06D40F08050A065A06D012700F0805015
:1014D000009052480168C90512D40168814641F460
:1014E00080710160FFF7AEFA804605E0FFF7AAFAC7
:1014F000A0EB080002281DD8D9F80000C005F5D5DA
:10150000A868012817D00528D4F8900018D020F03A
:101510000100C4F89000D4F8900020F0040000BF4F
:10152000C4F89000A86841F28839D0B1FFF78AFA70
:10153000804611E06BE0D4F8900040F00100EFE746
:1015400040F00400C4F89000F5E700BFFFF77AFA16
:10155000A0EB080149455AD8D4F890008007F5D58A
:101560000EE0FFF76FFA804606E000BFFFF76AFA69
:10157000A0EB0801494570D8D4F890008007F5D455
:101580001FB1A06D20F08050A065A86AF0B30C2EAA
:101590006BD00228206820F08070206004D0206882
:1015A00010F0205F47D04AE0FFF74CFA064604E00F
:1015B000FFF748FA801B02284FD820688001F7D433
:1015C000286BE96A000110380843696BAA6B0902AD
:1015D000120941EA42410843A98F114A490802EB26
:1015E0004151084395F840104908120102EB41614E
:1015F0000843E060206840F080702060E06840F0C0
:101600008070E060FFF71EFA054610E02BE024E052
:1016100000100240C43A00080C0000200070004096
:101620000000E0FFFFF70EFA401B022815D82068E3
:101630008001F7D517E0E06820F00300E060E06883
:101640000B490840E060FFF7FDF9054608E000BFE0
:10165000FFF7F8F9401B022802D90320BDE8F88300
:1016600020688001F4D40020F8E70120F6E70000AC
:10167000FFFFEEFE2DE9F04704460079002689467B
:1016800001280CD0012727716079B046012808D0C5
:101690005FF0010684F804803046BDE8F087022040
:1016A000FBE702206071FFF7CDF905460BE000BFB4
:1016B000FFF7C8F9401B022805D90420607184F89F
:1016C00004800320E9E720684068C043C007EFD1E9
:1016D00020688068E060C9F800006771DAE770B5DB
:1016E000040003D06079002510B105E0012070BD31
:1016F0002571204600F00CF8022060712068016816
:1017000041F00401016001206071A560002070BDFE
:1017100008B500680649884208D10648C16C41F402
:101720008021C164C06C00F48020009008BD0000DE
:10173000000806500010024070477047704710B50F
:10174000040003D094F83D0010B107E0012010BD63
:10175000002084F83C00204600F00CF8022084F8B9
:101760003D00211D206800F041FC012084F83D006F
:10177000002010BD704700000168CA6842F00102F5
:10178000CA600068826807490A40062A08D0826851
:101790000A40B2F5803F03D0016841F001010160C9
:1017A0000020704707000100704770B504460068CC
:1017B00001694FF00005C943890715D4C168C943C1
:1017C000890711D4E91E0161012020772068806912
:1017D0008007204602D0FFF7E7FF04E000F0A7F8FB
:1017E000204600F0A5F8257720680169C94349071C
:1017F00017D4C168C943490713D46FF004010161CC
:10180000022020772068806910F4407F204602D0B3
:10181000FFF7CAFF04E000F08AF8204600F088F8DD
:10182000257720680169C943090716D4C168C943EF
:10183000090712D46FF008010161042020772068A5
:10184000C0698007204602D0FFF7AEFF04E000F039
:101850006EF8204600F06CF8257720680169C943CE
:10186000C90617D4C168C943C90613D46FF0100163
:101870000161082020772068C06910F4407F20466D
:1018800002D0FFF791FF04E000F051F8204600F08D
:101890004FF8257720680169C943C90708D1C16895
:1018A000C943C90704D1891E0161204600F042F8EE
:1018B00020680169C943090609D4C168C9430906FA
:1018C00005D46FF0800101612046FFF736FF2068E4
:1018D0000169C943C90509D4C168C943090605D4CA
:1018E0006FF4807101612046FFF726FF20680169CF
:1018F000C943490609D4C168C943490605D46FF0F4
:1019000040010161204600F01FF820680169C943C9
:1019100089060BD4C168C943890607D46FF020013A
:1019200001612046BDE87040FFF708BF70BD7047F9
:101930007047000000680349884201D1FFF788B86A
:1019400070470000002C0140704710B5040003D020
:1019500094F8710010B107E0012010BD002084F858
:101960007000204600F026F8242084F871002068DA
:10197000016821F001010160204600F029FC0128E6
:10198000EBD0606A10B1204600F090FB20684168FF
:1019900021F4904141602068816821F02A01816032
:1019A0002068016841F0010101602046BDE8104057
:1019B00000F0E0BB10B586B0044614216846FEF77F
:1019C000BCFC1249206888421ED11148816D41F447
:1019D00000318165816D01F400310591C16C41F0E8
:1019E0000801C164C06C694600F0080005906020E1
:1019F0000090022001900020029003200390072015
:101A000004900448FEF734FF06B010BD00440040C7
:101A100000100240000C00482DE9F843044690F8FD
:101A200071001F4616460D4620284BD1C5B1BEB1E8
:101A300094F87000012845D0012084F870004FF020
:101A40000008C4F87480212084F87100FEF7FAFFC2
:101A5000A4F850608146A4F852604FF4805615E017
:101A60000120BDE8F8838021204600F001FDD8B9AF
:101A7000A068B04201D12069C0B115F8010B2168FE
:101A80000885B4F85200401EA4F85200B4F8520081
:101A90004B464FF0000200970028E4D14FF0400180
:101AA000204600F0E5FC30B10320DAE735F8020B00
:101AB000C0F30800E3E7202084F8710084F8708008
:101AC0000020CEE70220CCE7FEE7000010B588B08A
:101AD00014220B496846FEF717FC0021684601F006
:101AE0000DFA084C064908392060D1E90001CDE91A
:101AF0000501002105A801F0FDF9606008B010BDE6
:101B0000B03A0008000000202DE9F04387B014210E
:101B10006846FEF712FC1F48C16C41F00201C16427
:101B2000C16C01F002010591C16C41F01001C1646A
:101B3000C16C01F010010591C16C41F00801C16454
:101B4000C06CDFF8548000F00800059000220421EA
:101B50004046FEF772FFDFF844904FF48077002292
:101B600039464846FEF769FF042001240025032674
:101B70008DE8710069464046FEF77AFE01AA00979B
:101B800082E8700069464846FEF772FE07B0BDE87D
:101B9000F0830000001002400004004800100048DC
:101BA000074910B5054808600846FFF798FD00286A
:101BB00003D0BDE81040FEF75ABE10BD0008065025
:101BC000D00000200D4810B50B4901604FF41651AC
:101BD0004160002181600C22C160C0E90412816172
:101BE000C16101624162FFF7B0FE002803D0BDE889
:101BF0001040FEF73CBE10BD00440040E000002055
:101C0000FEE770470907090E002806DA00F00F000A
:101C100000F1E02080F8141D704700F1E02080F80A
:101C2000001470472DE9F041444C05468846E068B1
:101C30000026810728680DD0E16801F00301814288
:101C400016D1A8B1E0686968C0F30210401C884250
:101C50000ED120E0012804D0022805D0032807D1A6
:101C600008E02168890701E021684905002907DBB0
:101C700001265FE02168890302D421684903F5E762
:101C8000E1686A686FF00F0321F0730103EB021241
:101C900011430143E160206820F080602060FEF77E
:101CA000D1FE074605E000BFFEF7CCFEC01B0228B0
:101CB00037D820680001F7D4B8F1000F18D0B8F178
:101CC000010F1ED0287D4FF07E41400801EB40609F
:101CD000A96840EA01202169194A1140084320619E
:101CE000206840F080602060FEF7ACFE07461AE0F6
:101CF000A868E9680002090940EA41402169114ADF
:101D0000EBE7288A1049400801EB4050A96840EAF7
:101D1000012021690D4AE0E7FEF794FEC01B02286E
:101D200001D9032606E020680001F5D52069A969DC
:101D3000084320613046BDE8F081000000100240F9
:101D4000FF80FFF9FF80FDFF0000E0FFFF809FFFA5
:101D50002DE9F0413D4C06468846E06800258107A4
:101D600030680DD0E16801F00301814216D1A8B1BD
:101D7000E0687168C0F30210401C88420ED120E078
:101D8000012804D0022805D0032807D108E02168E3
:101D9000890701E021684905002907DB012551E099
:101DA0002168890302D421684903F5E7E168726874
:101DB0006FF00F0321F0730103EB02121143014393
:101DC000E160206820F080502060FEF73BFE07466F
:101DD00005E000BFFEF736FEC01B022829D82068A8
:101DE0008000F7D4B8F1000F15D0307C4FF07E4161
:101DF000400801EB4060B16840EA01206169144A83
:101E0000114008436061206840F080502060FEF778
:101E100019FE07460FE0B068F1680002090940EAC0
:101E2000414061690B4AEBE7FEF70CFEC01B02283C
:101E300001D9032506E020688000F5D56069716945
:101E4000084360612846BDE8F081000000100240B0
:101E5000FF80FFF9FF80FDFFF8B51C4D064600240A
:101E6000A86DC00002D5FEF7D1FE0DE0A86D40F0D0
:101E70008050A865A86D00F080500090FEF7C6FE67
:101E8000A96D21F08051A965B0F5007F04D0802EA6
:101E900007D94FF003040AE0802E08D9A02E01D8FC
:101EA00004E001D1022402E0702E00D10124084890
:101EB000016821F0070121430160006800F007007C
:101EC000A04201D00120F8BD0020F8BD0010024062
:101ED00000200240012001F001F8FBE710B550207E
:101EE00080F31188BFF34F8FBFF36F8F01F0DCFCDD
:101EF00018B104494FF080500860002080F3118829
:101F000010BD000004ED00E02DE9F041B8B044211F
:101F100022A8FEF712FA142133A8FEF70EFA882140
:101F20006846FEF70AFA01240025CDE928454FF05E
:101F300010080226CDF888806020CDE92C642A9014
:101F400028200727CDE92E40CDE93076329622A809
:101F5000FFF75EF90F2033900320CDE93405369565
:101F6000042133A83795FFF731F80B480F950090FF
:101F700040061D9001948011CDE90660CDE90476FC
:101F8000CDE902486846FEF749FE6002FEF70AFE08
:101F900038B0BDE8F0810000020004000D4801687F
:101FA00041F4700101600C48016841F001010160D9
:101FB000002181600268094B1A4002608214C260ED
:101FC000026822F48022026081610249C0038039E4
:101FD0000860704788ED00E000100240FFFFF6EA5D
:101FE0000148FFF7E2BB0000580100202DE9F0474F
:101FF0000268264B264D274E274F284C4FF0804A2B
:10200000984209D0504507D0A84205D0B04203D02D
:10201000B84201D0A04204D122F0700C4A6842EAD2
:102020000C02DFF87CC0DFF87C80DFF87C909842FF
:102030000FD050450DD0A8420BD0B04209D0B842C5
:1020400007D0A04205D0604503D0404501D04845A7
:1020500003D122F44075CA682A434D6922F08002F8
:102060002A4302608A68C2620A688262984207D084
:10207000A04205D0604503D0404501D0484501D17C
:102080000969016301214161BDE8F087002C01402D
:102090000004004000080040000C004000340140F3
:1020A00000400140004401400048014090F82410E5
:1020B000C90706D001684A68836A22F400321A43CD
:1020C0004A6090F82410890706D501684A68C36AF7
:1020D00022F480321A434A6090F82410490706D54A
:1020E00001684A68036B22F480221A434A6090F820
:1020F0002410090706D501684A68436B22F40042A0
:102100001A434A6090F82410C90606D501688A6807
:10211000836B22F480521A438A6090F82410890657
:1021200006D501688A68C36B22F400521A438A609C
:1021300090F82410490611D501684A68036C22F40E
:1021400080121A434A60016CB1F5801F06D1016804
:102150004A68436C22F4C0021A434A6090F8241083
:10216000090606D501684A68806C22F40022024301
:102170004A607047F8B5002604464667FEF762FCE1
:102180000546206800686FF07E47000708D52B469B
:1021900000224FF400112046009700F069F960B961
:1021A0002068006840070AD52B4600224FF48001C2
:1021B0002046009700F05CF908B10320F8BD20200C
:1021C00084F8710084F8720084F870600020F8BD13
:1021D0002DE9F0410446016880682369E6691843E7
:1021E00063691025002733431843954A0B68954EC1
:1021F000334003430B6020684168E36821F4405199
:10220000194341602168A069914201D0236A1843B3
:102210008B6823F4306303438B608B4B21688B48BE
:1022200099420DD1D0F8880010F0030006D00128A3
:102230005AD0022856D0032859D157E0012556E03C
:10224000834B99420BD1D0F8880010F00C0047D096
:10225000042849D0082845D00C2848D146E07D4BB9
:1022600099420BD1D0F8880010F0300038D01028F7
:102270003AD0202836D0302839D137E0764B9942F1
:102280000BD1D0F8880010F0C00029D040282BD006
:10229000802827D0C0282AD128E0704B99420ED13F
:1022A000D0F8880010F440701AD0B0F5807F1BD0B1
:1022B000B0F5007F16D0B0F5407F18D116E09142FE
:1022C00015D1D0F8880010F4406009D0B0F5806FC7
:1022D0000AD0B0F5006F05D0B0F5406F07D105E02A
:1022E000002504E0022502E0042500E008255C4BFF
:1022F00000264FF4004091423DD135B1022D07D068
:10230000042D07D0082D10D107E0FEF70BFF03E0E6
:10231000184602E0FEF72AFFA8B3626802EB42010A
:10232000814202D8B0EB023F01D9012775E0DFF806
:1023300034815DB1022D0CD0042D13D0082DF4D1C1
:1023400050082905401846F1000105E0FEF7EAFEB5
:102350000AE050084449F5E70023FDF7A1FFA0F586
:10236000407156E0FEF702FF6268010E030250085A
:1023700018187141F0E7E1694FF6EF7881422FD1EB
:10238000092DD2D200E048E0DFE805F0060920057B
:10239000230505052600C8E7FEF7C4FE01E0FEF7A9
:1023A000D3FE4100D4F8040001EB5001B1FBF0F082
:1023B00080B2A0F110014145B7D84FF6F07101404D
:1023C000C0F3420001432068C16026E027496068ED
:1023D000EAE7FEF7CBFEE4E74FF480316068E3E71D
:1023E000092DA2D2DFE805F006091E052205050524
:1023F00025009AE7FEF796FE01E0FEF7A5FE0146EE
:10240000606801EB500100BFB1FBF0F080B2A0F1B9
:102410001001414589D82168C8602666384666663D
:10242000BDE8F081606803EB5001EDE7FEF79EFE2A
:10243000E5E7616800EB5100B0FBF1F0E6E7000072
:1024400000800040F369FFEF0038014000100240B7
:102450000044004000480040004C00400050004054
:102460000024F400FFFC0F00000024F40048E80101
:102470002DE9F041984617460E460446069D1DE09C
:10248000681C1BD02DB1FEF7DDFAA0EB0800A842B6
:1024900014D92068016821F4D07101602068816836
:1024A00021F001018160202084F8710084F872001D
:1024B000002084F870000320BDE8F0812068C06926
:1024C00036EA000004D00020B842D9D00020F3E75B
:1024D0000120F9E70FB46E2100B59DB01FAB68462F
:1024E0001E9A00F011F86846FDF73EFF82B26423A1
:1024F00069460348FFF790FA1DB05DF814FB000031
:10250000E0000020FEE700007CB5044600201D46E8
:10251000164600290BD0491ECDE90041044B6A46FE
:102520002946304600F0DCF8009A002111707CBD8D
:10253000152E000802E008C8121F08C1002AFAD1AF
:1025400070477047002001E001C1121F002AFBD133
:10255000704700002DE9FF5F82B00021DDE9043003
:10256000020DDDF840B0034318D044F61050A2F23B
:10257000FF3242431514119801281FD0A5EB0B0020
:10258000401C5FEA000A4FF000064E4FDFF838911A
:10259000B046504615D5CAF1000413E01198012445
:1025A0004AA3012801D16FEA0B010298119AC0E9F0
:1025B0000031C0E9024206B000F08EB8CBF1000055
:1025C000DFE704460021404A491842EB0450CDE9B8
:1025D000001012E0E00707D032463B46404649462D
:1025E000FDF7ADFF8046894632463B461046194608
:1025F000FDF7A5FF06460F466410002CEAD1DDE981
:102600000401DDE90023BAF1000F06DAFDF797FFB8
:1026100042464B46FDF793FF05E0FEF705F84246BC
:102620004B46FEF701F804460E460022284BFEF703
:1026300083F803D84FF0FF30014607E00022254B16
:1026400020463146FDF7CCFEFEF75DF8102409E088
:10265000002C0ADB0A220023FDF722FE039B303206
:102660001A55641E50EA0102F2D1641C039AC4F1A7
:1026700011031444119A012A03D0012208430DD1F9
:102680000AE0084304D000204FF0110B119072E7CC
:10269000A3EB0B056D1E0DE05B4504DD4FF0000262
:1026A00005F1010504E003DA4FF00002A5F1010590
:1026B000002AECD002981199C0E90231C0E9004526
:1026C00079E70000000014400000F03F30000000F7
:1026D0000000F0430000E03F30BCBDE8C09F0000B8
:1026E0002DE9FF4F95B09B468946064600250FE22F
:1026F000252877D100242746F84A0121059400E0D7
:10270000044316F8013F203B01FA03F01042F7D1D1
:1027100030782A2811D06FF02F033078A0F13002E2
:10272000092A16D8059A44F0020402EB820203EB50
:1027300042021044761C0590EFE759F8042B0592ED
:10274000002A03DA504244F40054059044F0020495
:10275000761C30782E2816D116F8010F44F00404A8
:102760002A280DD06FF02F023078A0F13003092B0A
:1027700009D807EB870302EB4303C718761CF3E77E
:1027800059F8047B761C30786C280FD006DC4C2876
:1027900017D068280DD06A2814D104E0742810D00E
:1027A0007A280FD10DE044F400140AE044F48014B8
:1027B00001E044F440147278824202D104F580149E
:1027C000761C761C307866280BD013DC582877D01E
:1027D00009DC002875D04528F6D04628F4D04728D3
:1027E0001AD19DE118E0632835D0642879D0652896
:1027F00012D195E1702873D008DC6728F1D06928E0
:102800006FD06E280DD06F2806D1B5E073282CD07C
:10281000752875D0782874D05A46179990476D1C42
:1028200075E1C4F30250022809D003280DD0D9F86D
:10283000001004280DD00D6009F1040967E1D9F8F2
:102840000010EA17C1E90052F6E7D9F800100D8030
:10285000F2E70D70F0E719F8041B8DF80010002066
:102860008DF80100EA46012003E059F804AB4FF06F
:10287000FF3061074FF0000102D40DE008F10101C3
:102880008846B9420FDA8045F8DB1AF808100029AB
:10289000F4D108E008F1010188468142FADB1AF818
:1028A00008100029F6D105985B46A0EB08072146E1
:1028B0003846179A00F097FA284400EB080507E01D
:1028C0004DE029E10DE01AF8010B5A46179990479F
:1028D000B8F10108F7D25B4621463846179A13E152
:1028E00042E00A220092C4F302524FF0000A022A88
:1028F00008D059F804CB032A4FEAEC710AD00DE056
:1029000029E02AE009F1070121F00702F2E802C1FB
:10291000914609E00FFA8CFC4FEAEC71042A03D1CE
:102920004FFA8CFC4FEAEC71002907DA0A460021C5
:10293000DCF1000C61EB02012D2202E0220504D53E
:102940002B228DF80420012203E0E20701D020228F
:10295000F7E7904659E00A2102E010220DE010212D
:102960004FF0000A00910BE010224FF0000A44F0F3
:1029700004040827009203E008224FF0000A0092A6
:10298000C4F30252022A05D059F804CB0021032ACD
:1029900008D009E009F1070121F00702F2E802C1BD
:1029A000914605E01FFA8CFC042A01D10CF0FF0CC3
:1029B0004FF00008220728D5702806D0009B83F02E
:1029C000100353EA0A0305D00EE040228DF80420DC
:1029D000012208E05CEA010206D030228DF80420D2
:1029E0008DF8050002229046009B83F0080353EA0D
:1029F0000A030AD15CEA010201D1620705D530223F
:102A00008DF804204FF001087F1E582804D034A010
:102A100003900EA802900DE036A0F9E753466046F9
:102A2000009AFDF73DFC84460398825C0298401EA4
:102A3000029002705CEA0100F0D1029806A9081A1F
:102A400000F1200A600702D524F4803400E0012759
:102A5000574502DDA7EB0A0000E0002000EB0A0169
:102A6000009005984144401A0590E00306D45B4667
:102A70002146179A059800F0B6F90544002706E0AC
:102A800001A85A46C05D179990476D1C7F1C4745A9
:102A9000F6DBE0030CD55B462146179A059800F05B
:102AA000A2F9054404E030205A46179990476D1C5E
:102AB0000099481E00900029F5DC08E00298029970
:102AC0005A460078491C0291179990476D1CBAF13B
:102AD0000001AAF1010AF1DC65E10000092801000A
:102AE0003031323334353637383961626364656684
:102AF0000000000030313233343536373839414246
:102B0000434445460000000000F05BF90544761C94
:102B1000307800287FF4ECAD19B0284600F04EB9AB
:102B2000620700D4062709F1070222F0070CFCE82F
:102B30000223E14603F000485FEA080C02D00FF2DE
:102B4000702C0DE05FEA045C02D50FF2682C07E000
:102B50005FEAC47C02D00FF2602C01E0AFF2700C8F
:102B60004FF0FF3823F00043CDF850C065280CD05B
:102B700006DC452809D046281DD047283DD13DE038
:102B8000662818D067287ED138E00021112F01DB9C
:102B9000112000E0781CCDE9000106A90EA8FFF77E
:102BA000D9FCDDE90F010E9A03910021009207F193
:102BB000010A04914DE04FF000400097CDE901106B
:102BC00006A90EA8FFF7C6FCDDE90F0203920E9BD3
:102BD00011990022DDF80CA00093049211B9791C20
:102BE00000EB010AB7EB0A0004D4C0F1FF3007F193
:102BF000010A0490AAEB0700019044E0012F00DADB
:102C000001270021112F01DD112000E03846CDE918
:102C1000000106A90EA8FFF79DFCDDE90F010E9A41
:102C20000391002104910092BA4621070CD4039924
:102C3000514500DA8A46BAF1010F05DD009AAAF182
:102C40000101515C302908D0B84202DA10F1040FBA
:102C500006DA0121CDE9011015E0AAF10101E9E749
:102C6000002805DC049901440491AAEB000102E06C
:102C7000411C514500DD8A460499401A401C0190D0
:102C80004FF000400290200704D40198504501DB2A
:102C9000CDF8048000208DF84F0002980DF14F0709
:102CA000B0F1004F25D02B200E9002984FF0020873
:102CB00000280CDA404202902D200E9007E00A21F5
:102CC0000298FDF758FB3031029007F8011DB8F16A
:102CD0000001A8F10108F2DC02980028EFD1791E6A
:102CE0000E980870307800F0200040F0450007F89A
:102CF000020D12A8C01B00F107081498007800B15B
:102D0000012000EB0A01019801EBE07105984144B4
:102D1000401A401E0590E00306D45B462146179AF0
:102D2000059800F060F805441498007818B15A46E8
:102D3000179990476D1CE00324D55B462146179AEE
:102D4000059800F050F805441CE00498002807DBC3
:102D5000DDE90301884203DD0098405C179901E03A
:102D6000179930205A469047049805F10105401CF8
:102D700004900198401E019004D12E205A461799C4
:102D800090476D1CBAF10001AAF1010ADDDC05E0F3
:102D900017F8010B5A46179990476D1CB8F10001BE
:102DA000A8F10108F4DC5B462146179A0598ABE6CA
:102DB0002D0000002B0000002000000030BCBDE80A
:102DC000C08F2DE9F041044600251E4617468804B1
:102DD00004D405E039462020B0476D1C641EF9D5A7
:102DE0002846BDE8F0812DE9F041044600251E4645
:102DF0009046C80301D5302700E02027880404D579
:102E000005E041463846B0476D1C641EF9D528469A
:102E1000BDE8F0814A68002A06D00A68531C0B609E
:102E200010704868401E486070470000FDF718FEAB
:102E3000FFF76AF8FEF768FEFEF7B2FEFEF7C2FE85
:102E40004FF4FA74234664220BA1002000F0AEFA7E
:102E5000234664220CA1012000F0A8FA2346642234
:102E60000DA1022000F0A2FA0FA0FFF733FBFEF73E
:102E70002DFE00F03AF8FEE754454C4C45525F54A5
:102E800041534B5F3000000054454C4C45525F5459
:102E900041534B5F3100000054454C4C45525F5448
:102EA00041534B5F3200000053797374656D2069A4
:102EB0006E697469616C697A65642C2073746172DF
:102EC00074696E67204672656552544F530D0A004F
:102ED00001460020842900D0C81C704710B500B9F5
:102EE000012000F041FB002010BD10B500F062FB96
:102EF000002010BD03C8002200F040BC3EB50446CF
:102F00000D46B0F90800FFF7E3FF02A9CDE9000183
:102F1000208A2B4682B2D4E9001000F097FC0128E9
:102F200001D000203EBD02983EBD00002DE9F041D9
:102F3000184C0F46054666692068001D00F05AFAD5
:102F400038B9206890F82C1001208840A16981438D
:102F5000A161681C07D137B12168BDE8F0410E4876
:102F6000091D00F080BA20683544B54245602168EB
:102F700005D2A068BDE8F041091D00F05CBA6068A8
:102F8000091D00F058FA206B854200D22563BDE888
:102F9000F081000010000020740200202DE9F041B3
:102FA000054600F06DFA2E4C2069401C2061206817
:102FB0002C4F10B1E06940B32DE025602069012855
:102FC00029D1002606EB860007EB800000F025FAE9
:102FD000761C072EF6D323488C3000F01EFA2148C9
:102FE000A03000F01AFA1F48B43000F016FA1D485D
:102FF000C83000F012FA1B48DC3000F00EFA194815
:103000008C3060601430A06005E02068E96AC06A16
:10301000884200D82560E06A401CE062E96A01202D
:10302000A26988401043A06101EB810007EB80009A
:10303000291D00F018FA00F043FAE06900280CD0CE
:103040002068E96AC06A884207D207494FF0805079
:103050000860BFF34F8FBFF36F8FBDE8F0810000B2
:10306000100000209801002004ED00E010B5044697
:10307000006B00F039FA2046BDE8104000F034BA89
:1030800010484FF40051420706D0C01D0D4920F0F2
:103090000700411AC1F500510B4A00230144C2E95F
:1030A00000030839103A21F0070111604B600B60F2
:1030B0000B1AC0E9001393604FF000405360D060DA
:1030C00070470000880200205C000020144E154C60
:1030D000A6F1C8074FF08058DFF84C9012E000BF0F
:1030E00000F0CEF9F068C568281D00F083F920696A
:1030F000401E2061E068401EE06000F0E1F92846D3
:10310000FFF7B4FFE0680028EAD138680128F9D950
:10311000C9F80080BFF34F8FBFF36F8FF2E7000055
:10312000600200201000002004ED00E02DE9F047CF
:103130009A46DDE9098481466FF00303206B03EBB7
:1031400082021044089D20F00706700707D0502027
:1031500080F31188BFF34F8FBFF36F8FFEE7231803
:103160000A5C83F834200A5C12B1401C1028F6D3A4
:10317000002784F84370072D00D30625E562C4E9D3
:103180001157201D00F054F904F1180000F050F917
:103190002461C5F107006462A061E76484F850709F
:1031A00052464946304600F0BFF82060B8F1000FA3
:1031B00001D0C8F80040BDE8F087000030B51149E3
:1031C00000E011460A688242FBD34B685C188442D7
:1031D00003D1406818444860084643681C1894426C
:1031E00009D1084C103C2468A24209D052681A4404
:1031F00042600A6812680260814200D0086030BDF7
:103200000460F9E75C00002006484168096829B1BC
:103210004168C968C9684968016370474FF0FF3168
:10322000FAE700001000002008484068401C4FF0FA
:10323000500080F3118804D0BFF34F8FBFF36F8F1E
:10324000FEE7BFF34F8FBFF36F8FFEE764000020F0
:103250002DE9F0410546002700F0E0F9314E3068D5
:1032600008B9FFF70DFFF06805424BD1C5B308352B
:1032700068070ED005F00700C0F108000544680794
:1032800007D0502080F31188BFF34F8FBFF36F8FAB
:10329000FEE72DB37068854234D8224810300146CD
:1032A0000C6801E020460C466168A94202D2216800
:1032B0000029F7D131688C4224D007682168016069
:1032C00060680837411B10290FD96019420708D0E0
:1032D000502080F31188BFF34F8FBFF36F8FFEE74D
:1032E00010E041606560FFF769FF61687068401A2F
:1032F0007060B268904200D2B060F0680143002074
:10330000C4E9000100F06EFB780707D0502080F37D
:103310001188BFF34F8FBFF36F8FFEE73846BDE8CC
:10332000F08100004C00002010B5031F4FF08074A6
:103330001C601B1F21F001011960191F044B0B6059
:1033400014390A60091F6FF0020244380A6010BD88
:103350002932000808B5044600F1100569460A48FC
:10336000FEF788F9E0680099B1FBF0F200FB12105B
:10337000A1684218294605A00092FFF7ABF8009813
:1033800000F0F2F8EAE70000D000002054656C6C11
:1033900065722025732077617320686974206166E7
:1033A0007465722025640D0A000000001CB50B4CEA
:1033B00004EB40142060C4E90223102204F1100041
:1033C000FCF7C6FF0220211DCDE90001C201234602
:1033D00003A1074800F03AFA1CBD0000700000206D
:1033E00074656C6C6572205441534B3200000000D0
:1033F00055330008D0E9013201699A60D0E9012310
:103400005A604A68824201D182684A6000220261A1
:103410000868401E08600868704700F108014FF016
:10342000FF32C0E90112C1600161002101607047F3
:1034300000210161704730B50B685A1C02D000F1C1
:10344000080202E0026904E02246546825689D42B1
:10345000FAD953684B6099608A60516008610168CD
:10346000491C016030BD42684A6093688B60936874
:103470005960916008610168491C01607047000053
:10348000502080F31188BFF34F8FBFF36F8F0A492D
:103490004868401C486001280CD10848006810F0BA
:1034A000FF0F07D0502080F31188BFF34F8FBFF379
:1034B0006F8FFEE7704700006400002004ED00E01D
:1034C0000849486828B1401E486001D180F311883E
:1034D0007047502080F31188BFF34F8FBFF36F8F79
:1034E000FEE700006400002070B5002827D0144DCE
:1034F000A0F108046168E868014207D1502080F318
:103500001188BFF34F8FBFF36F8FFEE722683AB188
:10351000502080F31188BFF34F8FBFF36F8FFEE70A
:103520008143616000F07AF8606869680844686007
:103530002046FFF743FEBDE8704000F053BA70BD6F
:103540004C0000204FF0E02000210161816105491D
:103550004FF47A720968B1FBF2F1491E416107210B
:10356000016170470C00002010B5020014D00F4814
:10357000806B38B1502080F31188BFF34F8FBFF3B9
:103580006F8FFEE700F04AF800211046FFF7CEFCEF
:1035900000F028FA002807D105494FF08050086054
:1035A000BFF34F8FBFF36F8F10BD000010000020DE
:1035B00004ED00E01CB515480024CDE90040234689
:1035C000802213A1144800F041F9012809D0401CC1
:1035D0001AD1502080F31188BFF34F8FBFF36F8F44
:1035E000FEE7502080F31188BFF34F8FBFF36F8F3A
:1035F00006484FF0FF31343801630121C161446155
:10360000BDE81C4000F040B81CBD00004400002094
:1036100049444C4500000000CD3000080248816B51
:10362000491C816370470000100000201448816B22
:1036300011B1012141627047002141628169B1FAF3
:1036400081F1C1F11F0101EB81020E4951F82230D5
:103650006BB101EB820101F108034A6852684A60CC
:103660009A4201D152684A60D16801607047502087
:1036700080F31188BFF34F8FBFF36F8FFEE7000019
:1036800010000020980100201CB537480168374A17
:10369000914207D1502080F31188BFF34F8FBFF3C1
:1036A0006F8FFEE700683149491E884207D15020DC
:1036B00080F31188BFF34F8FBFF36F8FFEE72C4964
:1036C00008780190FF20087008788DF800009DF8B8
:1036D00000009DF8002000F0F000904207D050203C
:1036E00080F31188BFF34F8FBFF36F8FFEE79DF814
:1036F0000000204B00F0500018700720986005E093
:103700009DF8002052008DF80020401E9DF80020FA
:103710001206F5D49860032807D0502080F3118852
:10372000BFF34F8FBFF36F8FFEE74FF44070986089
:10373000019808700C482030016841F47001016064
:10374000016841F070410160FFF7FCFE0020586005
:10375000FCF748FD0848016841F040410160FCF772
:103760002DFD00201CBD000000ED00E071C20F41E6
:1037700000E400E06400002034EF00E070B50E4685
:10378000050013D0D6B105FB06F04830FFF760FD09
:10379000040009D004F1480120468EB10160C0E95F
:1037A0000F56012100F00EF8204670BD502080F326
:1037B0001188BFF34F8FBFF36F8FFEE70020E4E760
:1037C0000060ECE770B50D46040025D0FFF758FE09
:1037D000D4E90F20216802FB001161600021A16380
:1037E0002168A1600A46D4E90F01401E00FB0121B7
:1037F000E16021464FF0FF3001F8440F487004F1BA
:1038000010008DB1FFF709FE04F12400FFF705FE5B
:10381000FFF756FE012070BD502080F31188BFF3E2
:103820004F8FBFF36F8FFEE721690029F0D000F0C2
:103830009FF80028ECD004494FF080500860BFF397
:103840004F8FBFF36F8FE3E704ED00E02DE9FF5FDB
:103850008346DDE90E87994616468A469000FFF7B3
:10386000F7FC05001AD05420FFF7F2FC040012D038
:1038700025630021CDE90241CDE900874B46324660
:1038800051465846FFF752FC2046FFF787FB0120C0
:1038900004B000F006B82846FFF726FE4FF0FF30D0
:1038A000F6E730BCBDE8C09F2DE9F0412E4C002763
:1038B000A06B40B1206A401C2062606A00B1012701
:1038C0003846BDE8F0816669761C666113D1606890
:1038D000006838B1502080F31188BFF34F8FBFF3D9
:1038E0006F8FFEE76068A1686160A060A06A401CFD
:1038F000A062FFF789FC206BDFF87080864209D355
:103900006068006880B16068C068C56868688642A1
:103910000DD220632068C06A00EB800158F82100B6
:103920000128CAD90127C8E74FF0FF30F1E7281D69
:10393000FFF760FDA86A18B105F11800FFF75AFDFE
:10394000E86A0121A26981401143A16100EB800175
:1039500008EB8100291DFFF786FDE86A2168C96A26
:103960008842CDD30127CBE710000020980100202A
:103970002DE9F041C068C468ACB104F118000746F5
:10398000FFF738FD154DA86B0126A0B13946144844
:10399000FFF769FDE06A2968C96A88421CD90120DD
:1039A0006E62BDE8F081502080F31188BFF34F8F25
:1039B000BFF36F8FFEE7201DFFF71CFDE16AAA69C8
:1039C00006FA01F01043A86101EB81000449B43903
:1039D00001EB8000211DDBE70020E2E71000002062
:1039E0004C0200202DE9F0472C4D00242746A86BFF
:1039F00038B1FFF745FDA86B401EA863A86B40B126
:103A000046E0502080F31188BFF34F8FBFF36F8FD4
:103A1000FEE72969224E0120D1B3A6F1B409804600
:103A20003068E8B1F068C46804F11800FFF7E2FC00
:103A3000201DFFF7DFFCE06AAA6908FA00F11143D4
:103A4000A96100EB800109EB8100211DFFF70BFD4F
:103A5000E06A2968C96A8842E2D3C5F82480DFE7B2
:103A60000CB1FFF7D1FB2C6A44B14646FFF71CFFAF
:103A700000B16E62641EF9D100202862686A38B114
:103A80000849012738070860BFF34F8FBFF36F8FD6
:103A9000FFF716FD3846BDE8F08700001000002053
:103AA0004C02002004ED00E0400000000400000093
:103AB0000C3B0008D51E00080000000000000000BC
:103AC000800000000000000000000000010203046C
:103AD00006070809A0860100400D0300801A0600B1
:103AE00000350C0040420F0080841E0000093D009C
:103AF00000127A000024F40000366E010048E8014C
:103B0000006CDC02000000000102030464656661D1
:103B1000756C745461736B00383B00080000002022
:103B20007000000034250008A83B00087000002049
:103B300018260000442500080000000000000000D6
:103B40000000000000093D0000000000000000002F
:103B50000000000000000000000000000000000065
:103B60000000000000000000000000000000000055
:103B70000000000000000000000000000000000045
:103B80000000000000000000000000000000000035
:103B90000000000000000000000000000000000025
:083BA000AAAAAAAA0000000075
:040000050800018965
:00000001FF
